:100000000C949E000C94C6000C94C6000C94C60080
:100010000C94C6000C94C6000C94C6000C94C60048
:100020000C94C6000C94C6000C94C6000C94C60038
:100030000C94C6000C94AC070C94C6000C94C6003B
:100040000C94D8050C94C6000C9417050C94F1047C
:100050000C94C6000C94C6000C94C6000C94C60008
:100060000C9422060C94C60008000000BE9224499D
:10007000123EABAAAA2ABECDCCCC4C3E00000080DA
:10008000BEABAAAAAA3E00000000BF000000803F4D
:100090000000000000084178D3BB4387D1133D190D
:1000A0000E3CC3BD4282AD2B3E68EC8276BED98F3A
:1000B000E1A93E4C80EFFFBE01C4FF7F3F0000007E
:1000C000000007634236B79BD8A71A39685618AEA6
:1000D000BAAB558C1D3CB7CC5763BD6DEDFD753E7D
:1000E000F6177231BF000000803F000000080002D8
:1000F00001000003040700000000000000000000F1
:100100000000250028002B0000000000240027002C
:100110002A00040404040404040402020202020289
:1001200003030303030301020408102040800102BB
:1001300004081020010204081020070C11241FBE1F
:10014000CFEFD8E0DEBFCDBF11E0A0E0B1E0ECEA38
:10015000F3E202C005900D92A23DB107D9F723E06A
:10016000A2EDB1E001C01D92A23EB207E1F710E09E
:10017000CEE9D0E004C02197FE010E94560CCD3993
:10018000D107C9F70E94450A0C94D4110C940000C1
:10019000CF92DF92EF92FF920F931F93CF93DF9353
:1001A0006C017A018B01C0E0D0E0CE15DF0589F04B
:1001B000D8016D918D01D601ED91FC910190F081F6
:1001C000E02DC6010995892B11F47E0102C021960C
:1001D000ECCFC701DF91CF911F910F91FF90EF906E
:1001E000DF90CF900895FC01918D828D981761F07A
:1001F000828DDF01A80FB11D5D968C91928D9F5F5E
:100200009F73928F90E008958FEF9FEF0895FC0108
:10021000918D828D981731F0828DE80FF11D858DBB
:1002200090E008958FEF9FEF0895FC01918D228D4E
:10023000892F90E0805C9F4F821B91098F739927D3
:1002400008958DEE92E00E94150121E0892B09F4BA
:1002500020E0822F0895FC01848DDF01A80FB11DDD
:10026000A35ABF4F2C91848D90E001968F739927EC
:10027000848FA689B7892C93A089B1898C918064D9
:100280008C93938D848D981306C00288F389E02D9A
:1002900080818F7D80830895EF92FF920F931F934B
:1002A000CF93DF93EC0181E0888F9B8D8C8D981329
:1002B00005C0E889F989808185FD24C0F62E0B8D63
:1002C00010E00F5F1F4F0F731127E02E8C8DE81287
:1002D0000CC00FB607FCFACFE889F989808185FF49
:1002E000F5CFCE010E942B01F1CF8B8DFE01E80FDF
:1002F000F11DE35AFF4FF0820B8FEA89FB89808161
:10030000806207C0EE89FF896083E889F98980816E
:100310008064808381E090E0DF91CF911F910F9105
:10032000FF90EF900895CF93DF93EC01888D8823A1
:10033000C9F0EA89FB89808185FD05C0A889B98952
:100340008C9186FD0FC00FB607FCF5CF808185FF2D
:10035000F2CFA889B9898C9185FFEDCFCE010E949B
:100360002B01E7CFDF91CF91089580E090E0892BBA
:1003700029F00E94210181110C94000008953FB7DB
:10038000F89480918A0290918B02A0918C02B09196
:100390008D0226B5A89B05C02F3F19F00196A11D1F
:1003A000B11D3FBFBA2FA92F982F8827820F911D0B
:1003B000A11DB11DBC01CD0142E0660F771F881F52
:1003C000991F4A95D1F708952FB7F8946091860246
:1003D0007091870280918802909189022FBF0895C1
:1003E00085ED8093BC008091BC0084FDFCCF109211
:1003F000E602089540913C02262F30E0240F311D83
:1004000021323105DCF42091E6022430C9F4FC01EC
:1004100080E090E0861758F430913C022191DC0195
:10042000A65EBD4FA30FB11D2C930196F3CF809113
:100430003C02680F60933C0280E0089581E00895DB
:1004400082E00895089581E090E03091E8022091E3
:10045000E702321710F480E090E0919581959109C0
:1004600008958091E8029091E702891730F48F5F38
:100470008093E80280E090E008958FEF9FEF089569
:100480008091E70290E02091E802821B9109089593
:10049000CF92DF92EF92FF920F931F93CF93DF9350
:1004A0007C01262F972F8A018091EC02882391F0FE
:1004B000C62FD72F6E01C40ED51ECC15DD0571F0E9
:1004C0006991D701ED91FC910190F081E02DC70178
:1004D0000995F3CF642F822F0E94FA01C801DF91A2
:1004E000CF911F910F91FF90EF90DF90CF900895E3
:1004F000CF93DF931F92CDB7DEB769832091EC02D3
:100500002223D1F02091E902203240F021E030E0B6
:10051000FC013383228380E090E015C08091EA02E1
:10052000E82FF0E0E650FE4F998190838F5F809333
:10053000EA028093E90205C061E0CE0101960E94C3
:10054000FA0181E090E00F90DF91CF9108950E9431
:100550007A102F923F924F925F926F927F928F927A
:100560009F92AF92BF92CF92DF92EF92FF920F9342
:100570001F93CF93DF93CDB7DEB768970FB6F8948C
:10058000DEBF0FBECDBF81E480937C0080917A00F6
:10059000806480937A0080917A0086FDFCCF609120
:1005A00078008091790070E0782B072E000C880B82
:1005B000990B0E9486109B01AC0160E070EC8FE704
:1005C00094E40E94C90C20E030E040E85FE30E9420
:1005D0005C0C20E030E44CE156E40E94E5100E94FF
:1005E0007E0D6B017C0120E030E040E450E40E948D
:1005F000C60D4B015C0128ED36EC4BE759E3C70112
:10060000B6010E94E5102DE538E44FE85AE30E9458
:100610005D0C6B017C0128E030E04DE553E3C50142
:10062000B4010E94E5109B01AC01C701B6010E9414
:100630005D0C9B01AC0160E070E080E89FE30E94EC
:10064000C90C20E030E848E853E40E945C0C9B01B0
:10065000AC0160E070E088EC91E40E945C0C69837E
:100660007A838B839C839B01AC010E94E5106D8B88
:100670007E8B8F8B988F0EE812E082ED282E81E022
:10068000382E9AE8C92E91EED92E9AEEE92E95E3EE
:10069000F92EF801C192D192E192F1928F0120E0FE
:1006A00030E040EA50E4C701B6010E94C60D6D83F8
:1006B0007E838F83988720E030E040E850E4C701D4
:1006C000B6010E94C60D69877A878B879C8720E0D8
:1006D00030E040E450E4C701B6010E94C60D6D87CA
:1006E0007E878F87988BA7019601C701B6010E946C
:1006F000E510698B7A8B8B8B9C8B22E33FE64DE96F
:1007000056EF6D817E818F8198850E94E5104B01A7
:100710005C012AE338E048E15EE669857A858B85ED
:100720009C850E94E5109B01AC01C501B4010E94AB
:100730005D0C4B015C0124E235E94CEE54EE6D8515
:100740007E858F8598890E94E5109B01AC01C501CB
:10075000B4010E945D0C4B015C012AEA3FEE4AE2C3
:100760005BE569897A898B899C890E94E5109B01E8
:10077000AC01C501B4010E945D0C4B015C0120EE8F
:100780003FED48EC50EDC701B6010E94E5109B011A
:10079000AC01C501B4010E945D0C22E73BE640EAD2
:1007A00055E40E945D0C4B015C0125EC37E540E807
:1007B00051E76D817E818F8198850E94E5102B0124
:1007C0003C0122E230E64CEC58EE69857A858B8557
:1007D0009C850E94E5109B01AC01C301B2010E94FF
:1007E0005D0C2B013C012EE630EE4EE55FE56D859C
:1007F0007E858F8598890E94E5109B01AC01C3011D
:10080000B2010E945D0C2B013C012CE339E743E46B
:1008100055ED69897A898B899C890E94E5109B0135
:10082000AC01C301B2010E945D0C2B013C012AED19
:1008300032E944E95AE4C701B6010E94E5109B0180
:10084000AC01C301B2010E945D0C2DEB3AEF43E213
:100850005FE30E945C0C9B01AC0169817A818B8112
:100860009C810E94E5109B01AC01C501B4010E946E
:100870005D0C4B015C0127EA3CEE44E65FEE6D81C6
:100880007E818F8198850E94E5102B013C012AE929
:100890003AEC4AEC56E669857A858B859C850E9400
:1008A000E5109B01AC01C301B2010E945D0C2B015C
:1008B0003C0127E33DEC45E85DED6D857E858F8548
:1008C00098890E94E5109B01AC01C301B2010E940E
:1008D0005D0C2B013C0129E839E84FE953E56989B2
:1008E0007A898B899C890E94E5109B01AC01C30128
:1008F000B2010E945D0C2B013C012EE938E745E274
:1009000059ECC701B6010E94E5109B01AC01C3017F
:10091000B2010E945D0C22E73FE344EF5DE30E94D9
:100920005D0C9B01AC016D897E898F89988D0E9439
:10093000E5109B01AC01C501B4010E945D0C0E9451
:100940001C0E0E940F090E943B0D2B013C01F1017E
:100950007183608360E070E081E492E40E940F099B
:100960004B015C01B201550C880B990B0E9486105B
:10097000A50194010E94710D18163CF4C501B40143
:100980000E943B0DF1017183608327E73CEC4BEA49
:1009900052E3C701B6010E945D0C6B017C01F2E0DD
:1009A0002F0E311C8AEF281681E0380609F071CE2F
:1009B00068960FB6F894DEBF0FBECDBFDF91CF9122
:1009C0001F910F91FF90EF90DF90CF90BF90AF906D
:1009D0009F908F907F906F905F904F903F902F905F
:1009E00008951F920F920FB60F9211242F933F93E9
:1009F0004F935F936F937F938F939F93AF93BF9327
:100A0000EF93FF938DEE92E00E942B01FF91EF9107
:100A1000BF91AF919F918F917F916F915F914F9116
:100A20003F912F910F900FBE0F901F9018951F921E
:100A30000F920FB60F9211242F938F939F93EF93E2
:100A4000FF93E091FD02F091FE028081E0910303AB
:100A5000F091040382FD12C09081809106038F5FA4
:100A60008F7320910703821751F0E0910603F0E0A5
:100A7000E351FD4F958F8093060301C08081FF9164
:100A8000EF919F918F912F910F900FBE0F901F901C
:100A9000189590E0FC01E651FF4F3491FC01EA5DAE
:100AA000FE4F2491FC01EE5EFE4FE491EE2309F42B
:100AB0003BC0332339F1333091F038F43130A9F0B1
:100AC000323001F584B58F7D12C0373091F0383067
:100AD000A1F03430B9F4809180008F7D03C0809103
:100AE00080008F77809380000DC084B58F7784BDA0
:100AF00009C08091B0008F7703C08091B0008F7DD6
:100B00008093B000F0E0EE0FFF1FE250FF4FA59181
:100B1000B4918FB7F894EC91611103C020952E2306
:100B200001C02E2B2C938FBF0895CF93DF9382E8C3
:100B300091E00E9401090E94A90289E00E948F08A9
:100B4000C0E8D0E08881806888832091DF023091FE
:100B5000E002AFEFB0E00E94C511DC01CB012AE05A
:100B6000B695A795979587952A95D1F79093890083
:100B7000809388008091DE0280618093810061E033
:100B800080E10E94490580E094E00E94F90780E03E
:100B900090E00E94F90788818F77888360E080E188
:100BA0000E94490581E08093E102DF91CF91089591
:100BB0001F920F920FB60F9211242F933F938F9392
:100BC0009F93AF93BF938091860290918702A091EB
:100BD0008802B09189023091850223E0230F2D37DE
:100BE00020F40196A11DB11D05C026E8230F029631
:100BF000A11DB11D209385028093860290938702E8
:100C0000A0938802B093890280918A0290918B020E
:100C1000A0918C02B0918D020196A11DB11D80930F
:100C20008A0290938B02A0938C02B0938D02BF91A5
:100C3000AF919F918F913F912F910F900FBE0F9089
:100C40001F9018951F920F920FB60F9211242F9399
:100C50003F934F935F936F937F938F939F93AF9344
:100C6000BF93EF93FF938091B900887F803609F49A
:100C70009CC068F5883209F45BC090F4803109F4B7
:100C800054C038F4882309F4F6C0883009F44DC004
:100C9000F6C0883109F44CC0803209F45DC0EFC061
:100CA000803409F468C048F4803309F455C08833AF
:100CB00009F0E5C080936102D8C0803509F44FC0C7
:100CC000883509F45DC0883409F0D9C0D6C08839A8
:100CD00009F4C7C0A8F4883709F467C038F4883627
:100CE00009F463C0803709F460C0C9C0883809F4CA
:100CF000B8C0803909F45FC0803809F0C0C05BC05B
:100D0000803B09F486C038F4803A09F466C0883A1A
:100D100009F47FC0B4C0803C09F4A7C0883C09F442
:100D2000A4C0883B09F48AC0AAC08091840210C084
:100D30009091830280918202981770F5E09183026E
:100D400081E08E0F80938302F0E0EE59FD4F8081A9
:100D50008093BB0085EC86C0809361028EC0E091D9
:100D6000830281E08E0F809383028091BB00F0E0CC
:100D7000EE59FD4F808390918302809182026EC074
:100D8000E091830281E08E0F809383028091BB000B
:100D9000F0E0EE59FD4F80838091E50281116DC036
:100DA00081E08093E40284EA61C083E08093E602FC
:100DB00010926002CFCF80916002803208F051C063
:100DC000E091600281E08E0F809360028091BB0011
:100DD000F0E0E05CFD4F8083BDCF85EC8093BC00EC
:100DE0001092E60280916002803230F4E09160025D
:100DF000F0E0E05CFD4F10826091600270E0E091F5
:100E00003E02F0913F0280E492E009951092600268
:100E100036C084E08093E60210923D0210923C02BC
:100E2000E0913A02F0913B02099580913C028111D8
:100E300005C081E080933C0210921A02E0913D02CD
:100E400081E08E0F80933D02F0E0E65EFD4F8081F1
:100E50008093BB0090913D0280913C02981708F46A
:100E600079CF85E88093BC000AC085EC8093BC00F4
:100E70001092E60204C0109261020E94F001FF91FC
:100E8000EF91BF91AF919F918F917F916F915F9102
:100E90004F913F912F910F900FBE0F901F9018957B
:100EA0002091E9029091EB02213208F049C0809133
:100EB000E6028111FCCF32E03093E6026093E50256
:100EC0003FEF309361021092830220938202AAEFD7
:100ED000B1E042E652E0FA013E2F341B321718F41B
:100EE0003D913193F9CF1092840220918402990FA1
:100EF000922B909384029091E402913061F41092CD
:100F0000E402909184029093BB009091BC0093FD09
:100F1000F8CF95EC01C095EE9093BC009091E6025D
:100F20009230E1F3909161029F3F79F080916102EC
:100F3000803241F080916102803331F084E005C05D
:100F400081E003C082E001C083E01092EA021092C7
:100F5000E9021092EC0208951F920F920FB60F92C1
:100F600011242F933F934F935F936F937F938F93AE
:100F70009F93AF93BF93EF93FF93E0E0F0E0099569
:100F8000FF91EF91BF91AF919F918F917F916F9161
:100F90005F914F913F912F910F900FBE0F901F9037
:100FA0001895EDEEF2E0A089B18982E08C93A485DA
:100FB000B5851C92A685B78580E18C93108EA48997
:100FC000B58986E08C93A289B3898C9180618C93DA
:100FD000A289B3898C9188608C93A289B3898C9102
:100FE00080688C930288F389E02D80818F7D8083D7
:100FF00008950F931F93CF93DF9300D01F92CDB727
:10100000DEB72CE02093B80020E429839C0194E013
:10101000369527959A95E1F72A838295807F8B8371
:101020000091DC031091DD03D80114968D919C9101
:101030001597039748F18C9191E09093EC0280937F
:10104000EB021092EA021092E90211968D919C91A6
:101050001297DC01ED91FC910280F381E02D43E0D9
:1010600050E0BE016F5F7F4F0995039769F461E01F
:10107000F801818192810E945007811105C088E4A6
:101080008093B80081E001C080E00F900F900F9036
:10109000DF91CF911F910F9108951F93CF93DF930D
:1010A000EC011092E8021092E7021092EA0210920C
:1010B000E9021092E60211E01093E5021092E402B8
:1010C00061E082E10E94490561E083E10E944905F7
:1010D0008091B9008E7F8093B9008091B9008D7F97
:1010E0008093B90088E48093B80085E48093BC00C5
:1010F0001B8388811093EC028093EB021092EA022A
:101100001092E90261E089819A810E94500791E082
:10111000811190E0892FDF91CF911F91089590E088
:10112000FC01EA5DFE4F2491FC01EE5EFE4F8491CE
:10113000882399F090E0880F991FFC01E85FFE4F2B
:10114000A591B491FC01E250FF4F859194918FB726
:10115000F894EC91E22BEC938FBF0895009769F01F
:10116000FC0101900020E9F73197AF01481B590BB2
:10117000BC018DEE92E00C94C80080E090E00895F0
:101180008F929F92AF92BF920F931F93CF93DF9353
:10119000CDB7DEB7A1970FB6F894DEBF0FBECDBFB7
:1011A00019A2423008F44AE08E010F5D1F4F842ED1
:1011B000912CA12CB12CA50194010E94A311E62F22
:1011C000B901CA0101501109EA3014F4E05D01C00F
:1011D000E95CD801EC93232B242B252B61F7C80164
:1011E0000E94AE08A1960FB6F894DEBF0FBECDBF29
:1011F000DF91CF911F910F91BF90AF909F908F90F3
:101200000895CF93DF930E94AE08EC018DEA91E040
:101210000E94AE088C0F9D1FDF91CF910895CF9251
:10122000DF92EF92FF926B017C0125E83BEE49EFE4
:1012300050E40E947F1087FD0AC029E23CE543E1AB
:1012400051E4C701B6010E947F1087FF04C060E02F
:1012500070E0CB0104C060E070E08DEC93E4FF909F
:10126000EF90DF90CF900895E091ED02F091EE02C3
:101270000190F081E02D682F8DEE92E00994CF92DD
:10128000DF92EF92FF92CF93DF936C01990FEE08FC
:10129000FF08F7FE12C08DE20E943409EC016627B8
:1012A0007727CB016C197D098E099F094AE00E94BE
:1012B000C0087C01EC0EFD1E06C04AE0C701B60165
:1012C0000E94C0087C018DEA91E00E94AE088E0D5C
:1012D0009F1DDF91CF91FF90EF90DF90CF90089509
:1012E0004F925F926F927F928F929F92AF92BF9236
:1012F000CF92DF92EF92FF926B017C01B42E9B01A3
:10130000AC010E945C0E882319F083EC91E027C0A9
:1013100026013701E89477F82FEF3FEF4FE75FE7BB
:10132000C301B2010E945C0E81110DC02FEF3FEF8F
:101330004FE75FE7C301B2010E947F1018161CF44B
:1013400087EC91E00CC02FEF3FEF4FE75FE4C70160
:10135000B6010E94710D181684F48BEC91E0FF9099
:10136000EF90DF90CF90BF90AF909F908F907F9045
:101370006F905F904F900C94AE082FEF3FEF4FE7C8
:101380005FECC701B6010E947F1087FDE6CF20E029
:1013900030E0A901C701B6010E947F1087FF09C094
:1013A0008DE20E9434094C01F7FAF094F7F8F094BA
:1013B00002C0812C912CA12C60E070E080E09FE3C2
:1013C000AB1441F020E030E040E251E40E94C90C4F
:1013D000A394F6CF9B01AC01C701B6010E945D0C3E
:1013E0002B013C010E94420D6B017C010E94841084
:1013F0009B01AC01C301B2010E945C0C2B013C01BA
:101400004AE0C701B6010E94C0087C01E80CF91C43
:10141000BB2031F08FEC91E00E94AE08E80EF91E7F
:10142000DB2CDD2021F120E030E040E251E4C3017B
:10143000B2010E94E5102B013C010E94420D4B01BC
:10144000A12CB12C4AE0C501B4010E94C008E80EED
:10145000F91EC501B4010E9484109B01AC01C301B7
:10146000B2010E945C0C2B013C01DA94DACFC70177
:10147000FF90EF90DF90CF90BF90AF909F908F90B4
:101480007F906F905F904F900895789484B58260BC
:1014900084BD84B5816084BD85B5826085BD85B518
:1014A000816085BD80916E00816080936E00109296
:1014B0008100809181008260809381008091810011
:1014C00081608093810080918000816080938000A2
:1014D0008091B10084608093B1008091B000816000
:1014E0008093B00080917A00846080937A0080912C
:1014F0007A00826080937A0080917A008160809384
:101500007A0080917A00806880937A001092C100FE
:101510001092D8031092D9031092DA031092DB03D1
:10152000109298031092990310929A0310929B03C1
:101530000E94E4016B017C014B015C0128EB820EEF
:101540002BE0921EA11CB11C0E94E4016C157D05CC
:101550008E059F0528F086169706A806B906A0F7FF
:101560000E94BF014B015C0138EEC32E33E0D32E45
:10157000E12CF12C0E94BF01DC01CB0188199909F3
:10158000AA09BB09883E9340A105B10558F081E046
:10159000C81AD108E108F108E8EE8E0EE3E09E1EBD
:1015A000A11CB11CC114D104E104F10419F70E947B
:1015B000D1070E94E401609398037093990380938C
:1015C0009A0390939B0385E991E00E94AE080E94E4
:1015D000E4016B017C014B015C012AE0820E911C4D
:1015E000A11CB11C0E94E4016C157D058E059F05B0
:1015F00028F086169706A806B906A0F7C1E0C093A2
:10160000AC030E94E4016093980370939903809364
:101610009A0390939B0386EA91E00E94AE080E9491
:10162000D10780E10E948F0880E1809381001092B1
:101630008000C093DE0280E496E09093E002809305
:10164000DF02909387008093860081E18093810080
:101650008091DC039091DD03009711F00E94E20F6E
:1016600086E090E00E944D0F22E6FC0120832AE8EC
:1016700033E032832183138220E230E035832483F8
:101680009093DD038093DC030E944D0880E090E09E
:101690000E94F9070E94E401EB017093E30260935A
:1016A000E2028DEE92E00E9415011816190684F4EC
:1016B000CB3FD10568F08DEE92E00E94F3008D36AD
:1016C00051F00CF44CC0823709F054C00E949505CB
:1016D0000E94B501DFCF8091E102811102C00E941A
:1016E000950582E891E00E9401090E94A90289E023
:1016F0000E948F08809180008068809380002091F4
:10170000DF023091E002AFEFB0E00E94C511DC01D2
:10171000CB012AE0B695A795979587952A95D1F79D
:1017200090938900809388008091DE02806180938D
:10173000810061E080E10E94490580E094E00E9420
:10174000F90780E090E00E94F907809180008F7790
:101750008093800060E080E10E944905B9CF803528
:1017600009F440C0893609F4B3CF80EB91E00E94C0
:101770000109AECF8337D9F08037B9F7CEE8D2E090
:10178000699179918991999142E00E9470098CE266
:101790000E94340980E090E00E943F09F2E0CE3DD3
:1017A000DF0771F78AE190E00E943F0991CFCEE810
:1017B000D2E0699179918991999142E00E947009F2
:1017C0008CE20E94340942E060E070E0CB010E94AC
:1017D00070098DEA91E00E94AE0882E0CE3DD80704
:1017E00041F7E0CFCEE8D2E0699179918991999162
:1017F00042E00E9470098CE20E94340980E090E08F
:101800000E943F0922E0CE3DD20771F7CBCFEDEE2B
:10181000F2E01382128288EE93E0A0E0B0E08483CD
:101820009583A683B78326E631E03183208325ECB8
:1018300030E03587248724EC30E03787268720EC9A
:1018400030E0318B208B21EC30E0338B228B22EC8B
:1018500030E0358B248B26EC30E0378B268B118ED5
:10186000128E138E148EEAE8F3E0138212828483C0
:101870009583A683B78386E791E091838083E6E929
:10188000F3E016821782108611861286138614865C
:10189000158616861786108A118A128A138A148A68
:1018A000158A1092DD031092DC030895EE0FFF1FDE
:1018B0000590F491E02D09945058BB27AA270E9467
:1018C000740C0C9469110E945B1138F00E94621133
:1018D00020F039F49F3F19F426F40C9458110EF4BB
:1018E000E095E7FB0C945211E92F0E947A1158F30E
:1018F000BA17620773078407950720F079F4A6F5F5
:101900000C949C110EF4E0950B2EBA2FA02D0B0118
:10191000B90190010C01CA01A0011124FF27591B34
:1019200099F0593F50F4503E68F11A16F040A22F3A
:10193000232F342F4427585FF3CF469537952795AB
:10194000A795F0405395C9F77EF41F16BA0B620BAA
:10195000730B840BBAF09150A1F0FF0FBB1F661FF1
:10196000771F881FC2F70EC0BA0F621F731F841F34
:1019700048F4879577956795B795F7959E3F08F05A
:10198000B0CF9395880F08F09927EE0F979587951C
:1019900008950E94DD0C0C9469110E94621158F0A8
:1019A0000E945B1140F029F45F3F29F00C94521122
:1019B00051110C949D110C9458110E947A1168F3E6
:1019C0009923B1F3552391F3951B550BBB27AA27F8
:1019D00062177307840738F09F5F5F4F220F331F32
:1019E000441FAA1FA9F335D00E2E3AF0E0E832D0FA
:1019F00091505040E695001CCAF72BD0FE2F29D0FD
:101A0000660F771F881FBB1F261737074807AB07CE
:101A1000B0E809F0BB0B802DBF01FF2793585F4F43
:101A20003AF09E3F510578F00C9452110C949D11A0
:101A30005F3FE4F3983ED4F3869577956795B79525
:101A4000F7959F5FC9F7880F911D9695879597F930
:101A50000895E1E0660F771F881FBB1F62177307A9
:101A60008407BA0720F0621B730B840BBA0BEE1FBE
:101A700088F7E09508950E94420D6894B1110C9486
:101A80009D1108950E94821188F09F5798F0B92FF8
:101A90009927B751B0F0E1F0660F771F881F991FA3
:101AA0001AF0BA95C9F714C0B13091F00E949C1198
:101AB000B1E008950C949C11672F782F8827B85FA8
:101AC00039F0B93FCCF3869577956795B395D9F7FB
:101AD0003EF490958095709561957F4F8F4F9F4F05
:101AE00008950E94C11008F48FEF089516F00C9429
:101AF0009B0E0C94581168940C9452110E94821100
:101B0000A8F39923C1F3AEF3DF93CF931F930F9301
:101B1000FF92C92FDD2788232AF02197660F771FB0
:101B2000881FDAF720E030E040E85FEB9FE3883978
:101B300020F0803E38F021968F770E945D0CE8E619
:101B4000F0E004C00E945D0CE5E9F0E00E94B00EF8
:101B50008B01BE01EC01FB2E6F5771097595771F44
:101B6000880B990B0E94861028E132E741E35FE37E
:101B70000E94F810AF2D9801AE01FF900F911F91B8
:101B8000CF91DF910E94740C0C946911FA01EE0F51
:101B9000FF1F309621053105A1F16115710561F432
:101BA0008038BFE39B0749F168949038810561F064
:101BB0008038BFEF9B0741F099234AF5FF3FE105CD
:101BC0003105210519F1E8940894E795D901AA2374
:101BD00029F4AB2FBE2FF85FD0F310C0FF5F70F475
:101BE000A695E0F7F73950F019F0FF3A38F49F77EF
:101BF0009F930DD00F9007FC9058089546F00C94D9
:101C0000581160E070E080E89FE308954FE79F7708
:101C10005F934F933F932F930E947E0D2F913F919F
:101C20004F915F910E94E5100C94690E19F416F41F
:101C30000C9458110C949B0E0E948211B8F39923B6
:101C4000C9F3B6F39F57550B87FF0E94A90E0024D6
:101C5000A0E640EA900180585695979528F4805C5C
:101C6000660F771F881F20F026173707480730F4C4
:101C7000621B730B840B202931294A2BA6951794DC
:101C80000794202531254A2758F7660F771F881FAC
:101C900020F026173707480730F4620B730B840BCC
:101CA000200D311D411DA09581F7B901842F915858
:101CB000880F9695879508950E94C110880B990BFF
:101CC000089529F416F00C9452110C949C110C9464
:101CD00058110E948211A8F39638A0F707F80F92C6
:101CE000E8942BE33AEA48EB5FE70E94FB100F927F
:101CF0000F920F924DB75EB70F920E94190FE2EC50
:101D0000F0E00E94B00E4F915F91EF91FF91E59549
:101D1000EE1FFF1F49F0FE57E0684427EE0F441FF7
:101D2000FA95E1F74195550B0E94E30E0F9007FEDF
:101D30000C94D70E08959F3F31F0915020F4879571
:101D400077956795B795880F911D9695879597F923
:101D5000089591505040660F771F881FD2F708955D
:101D6000DF93CF931F930F93FF92EF92DF927B014C
:101D70008C01689406C0DA2EEF010E94F810FE0173
:101D8000E894A5912591359145915591A6F3EF01E0
:101D90000E94740CFE019701A801DA9469F7DF90A4
:101DA000EF90FF900F911F91CF91DF9108959B01CC
:101DB000AC0160E070E080E89FE30C94C90C0C94E7
:101DC00052110C949B0E0E948211D8F39923C9F3EF
:101DD000940F511DA3F39150504094F059F0882373
:101DE00032F0660F771F881F91505040C1F79E3F19
:101DF00051052CF7880F911D9695879597F90895B1
:101E00005F3FACF0983E9CF0BB2786957795679531
:101E1000B79508F4B1609395C1F7BB0F58F711F46B
:101E200060FFE8CF6F5F7F4F8F4F9F4FE3CF0C94E2
:101E30009D11FA01DC01AA0FBB1F9B01AC01BF572A
:101E400028F4222733274427507820C0B75190F434
:101E5000AB2F0024469537952795011CA395D2F307
:101E6000002071F0220F331F441FB395DAF30ED018
:101E70000C945C0C61307105A0E88A07B94630F417
:101E80009B01AC016627772788279078309621F050
:101E900020833183428353830895CF93DF9382302D
:101EA000910510F482E090E0E091E003F091E1030D
:101EB00020E030E0C0E0D0E0309711F14081518166
:101EC00048175907C0F04817590761F48281938178
:101ED000209719F09B838A832BC09093E103809312
:101EE000E00326C02115310519F04217530718F4F5
:101EF0009A01BE01DF01EF010280F381E02DDCCF0A
:101F00002115310509F1281B390B2430310590F4D6
:101F100012968D919C9113976115710521F0FB012B
:101F20009383828304C09093E1038093E003FD01D7
:101F3000329644C0FD01E20FF31F8193919322502A
:101F400031092D933C933AC02091DE033091DF0399
:101F5000232B41F420910201309103013093DF03E0
:101F60002093DE03209100013091010121153105FC
:101F700041F42DB73EB74091040150910501241B57
:101F8000350BE091DE03F091DF03E217F307A0F4D5
:101F90002E1B3F0B2817390778F0AC014E5F5F4FBF
:101FA0002417350748F04E0F5F1F5093DF0340930F
:101FB000DE038193919302C0E0E0F0E0CF01DF9176
:101FC000CF9108950F931F93CF93DF93009709F458
:101FD0008CC0FC013297138212820091E0031091B1
:101FE000E1030115110581F420813181820F931FD6
:101FF0002091DE033091DF032817390779F5F0933C
:10200000DF03E093DE0371C0D80140E050E0AE177B
:10201000BF0750F412962D913C911397AD012115F5
:10202000310509F1D901F3CF9D01DA013383228310
:1020300060817181860F971F8217930769F4EC0105
:1020400028813981260F371F2E5F3F4F3183208330
:102050008A819B8193838283452B29F4F093E1034A
:10206000E093E00342C01396FC93EE931297ED01C8
:10207000499159919E01240F351FE217F30771F41E
:1020800080819181840F951F029611969C938E9367
:102090008281938113969C938E931297E0E0F0E0F7
:1020A000D80112968D919C911397009719F0F80121
:1020B0008C01F6CF8D919C9198012E5F3F4F820F3E
:1020C000931F2091DE033091DF032817390769F44D
:1020D000309729F41092E1031092E00302C01382BA
:1020E00012821093DF030093DE03DF91CF911F91E3
:1020F0000F91089581E090E0F8940C94D4110E941F
:10210000C11008F481E00895E89409C097FB3EF4FB
:1021100090958095709561957F4F8F4F9F4F992334
:10212000A9F0F92F96E9BB279395F69587957795B2
:102130006795B795F111F8CFFAF4BB0F11F460FF72
:102140001BC06F5F7F4F8F4F9F4F16C0882311F0CA
:1021500096E911C0772321F09EE8872F762F05C0DE
:10216000662371F096E8862F70E060E02AF09A9579
:10217000660F771F881FDAF7880F9695879597F96E
:102180000895990F0008550FAA0BE0E8FEEF161608
:102190001706E807F907C0F012161306E407F5075B
:1021A00098F0621B730B840B950B39F40A2661F0CF
:1021B000232B242B252B21F408950A2609F4A14072
:1021C000A6958FEF811D811D08950E94F8100C9433
:1021D00069110E945B1138F00E94621120F0952372
:1021E00011F00C9452110C94581111240C949D115F
:1021F0000E947A1170F3959FC1F3950F50E0551F1F
:10220000629FF001729FBB27F00DB11D639FAA274B
:10221000F00DB11DAA1F649F6627B00DA11D661F9A
:10222000829F2227B00DA11D621F739FB00DA11DBB
:10223000621F839FA00D611D221F749F3327A00D75
:10224000611D231F849F600D211D822F762F6A2F11
:1022500011249F5750409AF0F1F088234AF0EE0F76
:10226000FF1FBB1F661F771F881F91505040A9F7A3
:102270009E3F510580F00C9452110C949D115F3FCC
:10228000E4F3983ED4F3869577956795B795F795DF
:10229000E7959F5FC1F7FE2B880F911D9695879557
:1022A00097F9089597F99F6780E870E060E00895D6
:1022B0009FEF80EC089500240A941616170618065E
:1022C0000906089500240A9412161306140605063A
:1022D0000895092E0394000C11F4882352F0BB0FCB
:1022E00040F4BF2B11F460FF04C06F5F7F4F8F4F2E
:1022F0009F4F089557FD9058440F551F59F05F3F69
:1023000071F04795880F97FB991F61F09F3F79F017
:1023100087950895121613061406551FF2CF469599
:10232000F1DF08C0161617061806991FF1CF86951B
:102330007105610508940895E894BB2766277727FF
:10234000CB0197F90895A1E21A2EAA1BBB1BFD0130
:102350000DC0AA1FBB1FEE1FFF1FA217B307E40784
:10236000F50720F0A21BB30BE40BF50B661F771FDC
:10237000881F991F1A9469F76095709580959095BC
:102380009B01AC01BD01CF010895A29FB001B39F95
:10239000C001A39F700D811D1124911DB29F700D6E
:0C23A000811D1124911D0895F894FFCFB9
:1023AC000000E203800001000000000000000000BB
:1023BC00CD4300C04C4400A0994400C0CC44000064
:1023CC00004500A019450030334500D04C45006055
:1023DC00664500F07F4585EBF940295C1341713D62
:1023EC002641AE476D4133339D410000C241F62872
:1023FC00CE41EC5107428FC21A4233332E420000B9
:10240C004142000000004C01C8001501F300070117
:10241C0093010000000078024802400231022302BE
:10242C00220270726973652064652072656665723C
:10243C00656E636500564D4450565F317C315F5676
:10244C004D4450560A00564D4450525F000D0A0040
:10245C00636F6D6D616E646520696E636F72656329
:10246C007465006E616E00696E66006F7666002E94
:02247C0000005E
:107800000C94343C0C94513C0C94513C0C94513CE1
:107810000C94513C0C94513C0C94513C0C94513CB4
:107820000C94513C0C94513C0C94513C0C94513CA4
:107830000C94513C0C94513C0C94513C0C94513C94
:107840000C94513C0C94513C0C94513C0C94513C84
:107850000C94513C0C94513C0C94513C0C94513C74
:107860000C94513C0C94513C11241FBECFEFD8E036
:10787000DEBFCDBF11E0A0E0B1E0ECE9FFE702C060
:1078800005900D92A230B107D9F712E0A2E0B1E065
:1078900001C01D92AD30B107E1F70E942D3D0C945F
:1078A000CC3F0C94003C982F959595959595959582
:1078B000905D8F708A307CF0282F295A8091C0000B
:1078C00085FFFCCF9093C6008091C00085FFFCCF60
:1078D0002093C6000895282F205DF0CF982F809127
:1078E000C00085FFFCCF9093C6000895EF92FF92F1
:1078F0000F931F93EE24FF2487018091C00087FD22
:1079000017C00894E11CF11C011D111D81E4E8164B
:1079100082E4F8068FE0080780E0180770F3E09132
:107920000401F091050109958091C00087FFE9CF1E
:107930008091C6001F910F91FF90EF9008950E94D3
:10794000763C982F8091C00085FFFCCF9093C600B5
:1079500091362CF490330CF09053892F089597555D
:10796000892F08951F930E949F3C182F0E949F3CCF
:107970001295107F810F1F9108951F93182F882350
:1079800021F00E94763C1150E1F71F9108951F935A
:10799000182F0E94763C803249F0809103018F5F5E
:1079A000809303018530C1F01F9108958091C0003C
:1079B00085FFFCCF84E18093C6008091C00085FFE5
:1079C000FCCF1093C6008091C00085FFFCCF80E102
:1079D0008093C6001F910895E0910401F091050184
:1079E00009951F9108950E94763C803241F0809164
:1079F00003018F5F80930301853081F008958091AA
:107A0000C00085FFFCCF84E18093C6008091C00058
:107A100085FFFCCF80E18093C6000895E0910401CA
:107A2000F09105010995089540E951E08823A1F0FE
:107A30002D9A28EE33E0FA013197F1F721503040CA
:107A4000D1F72D9828EE33E0FA013197F1F7215064
:107A50003040D1F7815061F708953F924F925F9285
:107A60006F927F928F929F92AF92BF92CF92DF924E
:107A7000EF92FF920F931F93CF93DF93000080E16B
:107A80008093C4001092C50088E18093C10086E015
:107A90008093C2005098589A259A81E00E94143D24
:107AA00024E1F22E9EE1E92E85E9D82E0FE0C02ECA
:107AB00010E1B12EAA24A394B1E49B2EA6E58A2E50
:107AC000F2E57F2EE0E26E2E79E4572E63E5462E36
:107AD00050E5352E0E94763C8033B1F18133B9F107
:107AE000803409F46FC0813409F476C0823409F41B
:107AF00085C0853409F488C0803531F1823521F1A3
:107B0000813511F1853509F485C0863509F48DC0BC
:107B1000843609F496C0843709F403C1853709F423
:107B200072C1863709F466C0809103018F5F80932C
:107B30000301853079F6E0910401F0910501099582
:107B40000E94763C803351F60E94F33CC3CF0E94E2
:107B5000763C803249F78091C00085FFFCCFF092DF
:107B6000C6008091C00085FFFCCF9092C600809136
:107B7000C00085FFFCCF8092C6008091C00085FFC9
:107B8000FCCF7092C6008091C00085FFFCCF609250
:107B9000C6008091C00085FFFCCF5092C600809146
:107BA000C00085FFFCCF4092C6008091C00085FFD9
:107BB000FCCF3092C6008091C00085FFFCCFB09210
:107BC000C60088CF0E94763C863808F4BDCF0E945C
:107BD000763C0E94F33C7ECF0E94763C803809F4CC
:107BE0009CC0813809F40BC1823809F43CC1883942
:107BF00009F48FC080E00E94C73C6CCF84E10E94F2
:107C0000BD3C0E94F33C66CF85E00E94BD3C0E94D3
:107C1000F33C60CF0E94763C809306010E94763C44
:107C2000809307010E94F33C55CF0E94763C80333D
:107C300009F41DC183E00E94BD3C80E00E94C73C66
:107C400049CF0E94763C809309020E94763C809343
:107C5000080280910C028E7F80930C020E94763C79
:107C6000853409F415C18091080290910902892B8D
:107C700089F000E010E00E94763CF801E85FFE4FDA
:107C800080830F5F1F4F80910802909109020817AF
:107C9000190788F30E94763C803209F045CF809125
:107CA0000C0280FF01C16091060170910701660F0F
:107CB000771F7093070160930601A0910802B091AD
:107CC00009021097C9F0E8E0F1E09B01AD014E0F09
:107CD0005F1FF999FECF32BD21BD819180BDFA9A17
:107CE000F99A2F5F3F4FE417F50799F76A0F7B1F4B
:107CF00070930701609306018091C00085FFFCCF5F
:107D0000F092C6008091C00085FFFCCFB092C60003
:107D1000E1CE83E00E94C73CDDCE82E00E94C73CFA
:107D2000D9CE0E94763C809309020E94763C8093D3
:107D300008028091060190910701880F991F909386
:107D40000701809306010E94763C853409F4A6C0A1
:107D500080910C028E7F80930C020E94763C8032D0
:107D600009F0B8CE8091C00085FFFCCFF092C6002C
:107D7000609108027091090261157105B9F140E046
:107D800050E080910C02A82FA170B82FB27011C0E2
:107D9000BB2309F45CC0E0910601F0910701319624
:107DA000F0930701E09306014F5F5F4F46175707B7
:107DB000E8F4AA2369F3F999FECF209106013091E6
:107DC000070132BD21BDF89A90B58091C00085FFB2
:107DD000FCCF9093C6002F5F3F4F30930701209355
:107DE00006014F5F5F4F4617570718F38091C00099
:107DF00085FDE5CE8091C00085FFF8CFE0CE81E023
:107E00000E94C73C67CE0E94763C803209F08CCE3F
:107E10008091C00085FFFCCFF092C6008091C00029
:107E200085FFFCCFE092C6008091C00085FFFCCFAB
:107E3000D092C6008091C00085FFFCCFC092C600E2
:107E40008091C00085FFFCCFB092C60043CEE09188
:107E50000601F091070194918091C00085FFFCCF4D
:107E60009093C6009CCF80E10E94C73C33CE0E9415
:107E7000763C0E94763C182F0E94763C112309F430
:107E800083C0113009F484C08FE00E94C73C22CE29
:107E900080910C02816080930C02E5CE80910C02EF
:107EA000816080930C0259CF809107018823880F4D
:107EB000880B8A2180930B02809106019091070123
:107EC000880F991F90930701809306018091080203
:107ED00080FF09C080910802909109020196909359
:107EE000090280930802F894F999FECF1127E091D6
:107EF0000601F0910701C8E0D1E08091080290915D
:107F00000902103091F40091570001700130D9F34B
:107F100003E000935700E89500915700017001308D
:107F2000D9F301E100935700E89509901990009169
:107F3000570001700130D9F301E000935700E89534
:107F40001395103498F011270091570001700130FB
:107F5000D9F305E000935700E895009157000170B0
:107F60000130D9F301E100935700E895329602976A
:107F700009F0C7CF103011F00296E5CF112480919F
:107F8000C00085FFB9CEBCCE8EE10E94C73CA2CD19
:0C7F900085E90E94C73C9ECDF894FFCF0D
:027F9C00800063
:040000030000780081
:00000001FF